:04000000A8310028FB
:1000080070084001A3007108A2007208A1008031A5
:100018004E010C1EFD290C127E01551E3F2855125B
:1000280040018E1D3E287E015412FF304D01DD0037
:10003800DE0140018E1D31284D015D085E04031963
:100048002A280130DD020030DE3B30284701EF016D
:100058007E01D31154161D2A1D2801304701EF00D7
:100068007E01D3154801BC014701EE014901D901C0
:100078004F01B3011D2A7E01D51DFD29D311D511CC
:10008800003040010E1A01304F01B20047016F08DD
:10009800013A031DE32849015908031DE2280830E5
:1000A80047016E02031864284801BC35F00140017D
:1000B8000E1AF00A70084801BC044701EE0AE2284B
:1000C8006E08083A031DE22801304F01B1004801CB
:1000D8003C0849015B06031D81289031CE278031F9
:1000E8007E01541A7828D31501304901D90004300B
:1000F8004701EF004F01B101962848013C0849012A
:100108005C06031D96289031CE2780317E01541A53
:100118008E28D31501304901D90003304701EF007B
:100128004F01B1014701EE0148013C0849015C0655
:10013800031DD9284E01EB0125306B020318BD2899
:100148006B08F000F101F035F10D203070078600E2
:100158000730713D87002030700784000830713DFA
:100168008500000881000131000841318100EB0A57
:10017800A02848016E08F000F101F035F10D20309B
:10018800F0070730F13D70084E01EC007108ED00F2
:1001980070088400710885000008F00070084D019F
:1001A800EF004E01EA017008EE004801BC014F0162
:1001B80031080319E1287E0154161D2A8F294701A9
:1001C8006F08033A031D312908306E02031803290A
:1001D800EE0A4D01EF1FF32840011416F6284001DE
:1001E80014121A128831522380314D01EF357E01E5
:1001F800541A0029D3150229400114163029470141
:100208006E08083A031D3029400114164701EE0113
:1002180040010E1E12297E01531630294E01EA0AAA
:100228006A08023A031D1F29EA016E084D01EF0012
:100238004E01EE012E29EC0A0319ED0A6C08840020
:100248006D0885000008F00070084D01EF00700887
:100258004E01EE067E01D3151D2A47016F08043AA8
:10026800031D8F2908306E02031846294801BC3542
:10027800F00140010E1AF00A70084801BC04470159
:10028800EE0A8F296E08083A031D8F299031CE2770
:1002980080317E01541A5129D3154701EE014901D5
:1002A8005908013A031D5C2948013C08EE008C29D5
:1002B80049015908023A031D6A2948013C084901C5
:1002C800D30048013C084F01B0008C294901590866
:1002D800033A031D782948013C084901D400480124
:1002E8003C084E01EF008C2949015908043A031DC6
:1002F8008C294E016F084F013006F1007108B000DB
:1003080048013C087106031D8C2901304F01B300D8
:100318004901D90A1D2AFF304D01DD00DE014001E7
:100328008E1DFB29F1010E1AF10A4F0132087106E0
:100338000319E6294801BC0140010E1EDA294F01C4
:1003480033080319D429153048016E02031CC1294A
:100358006E08253C031CC1296E08F000F101F03538
:10036800F10D2030700786000830713D8700490183
:100378005308810054084131810048016E08153A3C
:10038800031DCA2901304D01C100D22948016E0858
:10039800163A031DD22901304D01BD004F01B301AA
:1003A80002304701EF007E015416E529013047016C
:1003B800EF004901D9017E01D3154701EE014F0134
:1003C800B3011D2A4D015D085E04031DF5290530A2
:1003D8004701EF004801BC014701EE017E015416B8
:1003E8001D2A01304D01DD020030DE3B93297E01DC
:1003F800D3154E01101C1D2A1010E03044018D0049
:10040800C0308C004801EF0A6F08643A031D152AB2
:1004180001304901DE070030DF3DE03DE13D4801A4
:10042800EF0101304901CF070030D03DD13DD23D29
:100438001D2A40012308F0002208F1002108F200DB
:020448000900A9
:10044A008B1355309F00AA309F009E148B1708000B
:10045A00F1010A3071020318352A0000F10A2E2A26
:02046A00080088
:10046C00F2015101401C3B2A3B2AF1010830710278
:10047C000318512A400199135101401C4A2A40018A
:10048C0019179917F20A4D2A40011913991751019E
:10049C00C036F10A3C2A40019913F3010130730272
:1004AC0003185A2AF30A542A721C602A400119179D
:1004BC009917632A400119139917991319130800F6
:1004CC0059010E131013400197119D152D2259013E
:1004DC0010172D2240019D112D22590110132D2290
:0204EC00080006
:1004EE005101BC0108303C020318942A5901101323
:1004FE002D225101BB1F872A40011D152D228A2A4C
:10050E0040011D112D22590110172D225101BB350D
:10051E00590110135101BC0A792A40011D152D22D3
:10052E00590110132D22590110172D2259011013A4
:04053E002D22080062
:1005420051013B08F2003C08F3007208F000730806
:10055200F100F20A0319F30A700884007108850099
:1005620000080319B52AA62A3B087202F0003C08CB
:0E057200733BF1000130F0020030F13B080055
:100580004001171159010E1310132D2240011D11A6
:100590002D22590110172D22400117151D152D224E
:0205A000080051
:1005A20051013B08013A031DE12A400118129A1039
:1005B2001A101A1398101810590191101110F02BDB
:1005C20051013B08023A031DF12A400118129A1008
:1005D2001A101A1798101810590191101110F02BB7
:1005E20051013B08033A031D012B400118129A10D6
:1005F2001A101A1798101810590191101114F02B93
:1006020051013B08043A031D112B400118129A10A4
:100612001A141A1398101810590191101114F02B72
:1006220051013B08053A031D212B400118129A1073
:100632001A141A1398101810590191141110F02B52
:1006420051013B08063A031D312B400118129A1042
:100652001A141A1798101810590191141110F02B2E
:1006620051013B08073A031D412B400118129A1011
:100672001A141A1798101810590191141114F02B0A
:1006820051013B08083A031D512B400118129A14DC
:100692001A101A1398101810590191141114F02BF2
:1006A20051013B08093A031D612B400118129A14AB
:1006B2001A101A1398101814590191101110F02BD6
:1006C20051013B080A3A031D712B400118129A147A
:1006D2001A101A1798101814590191101110F02BB2
:1006E20051013B080B3A031D812B400118129A1449
:1006F2001A101A1798101814590191101114F02B8E
:1007020051013B080C3A031D912B400118129A1417
:100712001A141A1398101814590191101114F02B6D
:1007220051013B080D3A031DA12B400118129A14E6
:100732001A141A1398101814590191141110F02B4D
:1007420051013B080E3A031DB12B400118129A14B5
:100752001A141A1798101814590191141110F02B29
:1007620051013B080F3A031DC12B400118129A1484
:100772001A141A1798101814590191141114F02B05
:1007820051013B08103A031DD12B400118169A1053
:100792001A101A1398101814590191141114F02BED
:1007A20051013B08113A031DE12B400118169A1022
:1007B2001A101A1798141810590191101114F02BCD
:1007C20051013B08123A031DF02B400118169A10F2
:1007D2001A141A139814181059019114111059016E
:1007E2000F108F1040011210921014131410941055
:0407F20012120800D7
:1007F60051013B0841019F00420191179315931D3A
:10080600052C022C1114111C092C062C41011E0862
:0E081600F100F0011D08F0070030F13D080070
:100824004001FB01FA01F901F801A001730DF80D73
:100834007408F8027508031C750FF9027608031C86
:10084400760FFA027708031C770FFB020001031CE2
:100854000130A002F30D0730FC00730DF80DF90D03
:10086400FA0DFB0DA00D7408731C4A2CF8027508D0
:10087400031C750FF9027608031C760FFA02770839
:10088400031C770FFB020001031C0130A0025B2C48
:10089400F80775080318750FF90776080318760F1B
:1008A400FA0777080318770FFB07000103180130D4
:1008B400A007F30DFC0B2F2C720DF80DF90DFA0D9A
:1008C400FB0DA00D7408731C792CF8027508031C29
:1008D400750FF9027608031C760FFA027708031CD9
:1008E400770FFB020001031C0130A0028A2CF807D9
:1008F40075080318750FF90776080318760FFA07B9
:1009040077080318770FFB07000103180130A007CD
:10091400F20D0730FC00720DF80DF90DFA0DFB0D08
:10092400A00D7408721CA82CF8027508031C750F1E
:10093400F9027608031C760FFA027708031C770F76
:10094400FB020001031C0130A002B92CF807750852
:100954000318750FF90776080318760FFA07770856
:100964000318770FFB07000103180130A007F20DED
:10097400FC0B8D2C710DF80DF90DFA0DFB0DA00D6E
:100984007408721CD72CF8027508031C750FF90241
:100994007608031C760FFA027708031C770FFB0214
:1009A4000001031C0130A002E82CF80775080318A5
:1009B400750FF90776080318760FFA0777080318F6
:1009C400770FFB07000103180130A007F10D073072
:1009D400FC00710DF80DF90DFA0DFB0DA00D740856
:1009E400711C062DF8027508031C750FF9027608B0
:1009F400031C760FFA027708031C770FFB02000131
:100A0400031C0130A002172DF80775080318750F91
:100A1400F90776080318760FFA0777080318770F93
:100A2400FB07000103180130A007F10DFC0BEB2CB0
:100A3400700DF80DF90DFA0DFB0DA00D7408711C65
:100A4400352DF8027508031C750FF9027608031C8E
:100A5400760FFA027708031C770FFB020001031CD0
:100A64000130A002462DF80775080318750FF90721
:100A740076080318760FFA0777080318770FFB0731
:100A8400000103180130A007F00D0730FC00700DC1
:100A9400F80DF90DFA0DFB0DA00D7408701C642DF2
:100AA400F8027508031C750FF9027608031C760F0B
:100AB400FA027708031C770FFB020001031C0130C4
:100AC400A002752DF80775080318750FF907760845
:100AD4000318760FFA0777080318770FFB0700014E
:100AE40003180130A007F00DFC0B492D7018882D58
:100AF4007408F80775080318750FF90776080318C2
:0E0B0400760FFA0777080318770FFB07080033
:100B1200003051013C05F3003D08FF39F400740830
:100B2200F000F101700850019D00FF3051013C05B9
:100B320050019C0044309E0470309B0051013B08E0
:0E0B420050019A0025229E1CA72DA42D08000C
:100B50000F3051013B05BC00F0303B05F20072083C
:100B6000BD007208F000F036F036F036F03670084E
:100B7000BD000F307005F1007108BD007108093C1F
:100B80000318C72D37303D07C0003622CC2D30303A
:100B900051013D07C000362251013C08093C0318B1
:100BA000D62D37303C07C0003622DB2D30305101C6
:080BB0003C07C00036220800DA
:100BB8005101BC0108303C020318F92D59011013EA
:100BC8002D225101BB1FEC2D40019D152D22EF2D2B
:100BD80040019D112D22590110172D225101BB35BD
:100BE800590110135101BC0ADE2D40019D152D221B
:100BF800590110132D22590110172D2259011013D4
:040C08002D22080091
:100C0C004001971159010E1310132D2240019D1113
:100C1C002D22590110172D22400197159D152D22BB
:020C2C000800BE
:100C2E004001F801F9011030FC00710DF80DF90DBD
:100C3E007408F8027508031C750FF90203182E2E9E
:100C4E007408F80775080318750FF9070310F00DEF
:080C5E00F10DFC0B1C2E080037
:100C660051013B08F2003C08F3003E08F0003F0843
:100C7600F1000130BE020030BF3B70087104031959
:100C86004E2E72088600730887003D088100F20A1E
:100C96000319F30A382E3B08F0003C08F10008005F
:100CA60059010E131013400117111D152D2259015C
:100CB60010172D2240011D112D22590110132D222E
:020CC600080024
:100CC80051013508013A031D702E59018E109014F8
:100CD80001305001EF00752E59018E10901050010F
:040CE800EF01080010
:100CEC0051013708F4003808F5003508F2003608D1
:100CFC00F3003908F0003A08F1000130B902003075
:100D0C00BA3B7008710403199C2E74088400750892
:100D1C008500720886007308870000088100F20ABB
:100D2C000319F30AF40A0319F50A7F2E3508F000AB
:060D3C003608F10008007A
:100D4200FF305001E200FF30E300FF30E400FF30EB
:100D5200E500FF30E600FF30E700FF30E800FF303B
:100D6200E9005101BB01FF30BC00BD018925013002
:100D72005101BB00FF30BC00BD0189250230510189
:100D8200BB00FF30BC00BD01892503305101BB000F
:100D9200FF30BC00BD01892504305101BB00FF308A
:100DA200BC00BD01892505305101BB00FF30BC00EC
:100DB200BD018925D030FC00C930FD00FD0BDF2EBE
:0A0DC200FC0BDF2E0000000008000B
:100DCC0040012230FC00F801F901FA01FB01FC039F
:100DDC0003191B2F0310FB0CFA0CF90CF80CF30C79
:100DEC00F20CF10CF00C031CED2EFC0303190D2F6F
:100DFC007408F80775080318750FF90776080318B7
:100E0C00760FFA0777080318770FFB07F12E740893
:100E1C00F80775080318750FF90776080318760F8D
:0C0E2C00FA0777080318770FFB0708008F
:100E38005101BB014C016D085101BC00BD01892560
:100E480002305101BB004D013A085101BC004D016F
:100E58003B085101BD00892501305101BB004D01FE
:100E68003B085101BC00BD01892503305101BB007D
:100E78004C016F085101BC00BD01892505305101A5
:100E8800BB004D0138085101BC004D013908510122
:100E9800BD00892504305101BB004D0139085101BD
:100EA800BC00BD018925D030FC00C930FD00FD0B18
:100EB8005B2FFC0B5B2F000000004C016D085001FC
:100EC800E200E3014D013A085001E4004D013B08FE
:100ED8005001E5004C016F085001E600E7014D01A3
:100EE80038085001E8004D0139085001E9000800B0
:100EF80051013508BB003608BC00A1227008B900B2
:100F08007108BA00B701B8013A083802031D8E2FDC
:100F18003908370203189F2F3508840036088500E2
:100F28000008C00036225101B50A0319B60AB70AEB
:080F38000319B80A882F080014
:100F400051013608103C031DA72F3508003C03183B
:100F5000AD2FFF30B5000F30B6005326C030510121
:100F6000BB0077224D0142085101BB00772251019D
:100F70003508F0003608F100F136F00CF136F00CCF
:100F8000F136F00CF136F00CFF307005BB00772223
:100F90000430F00051013508BB0070080319D32F4D
:100FA000BB35FF3ECE2FF030BB057722C02240017B
:0C0FB0001D157C015115400117150800AB
:100FBC0051013508013A031DEA2F400197139D1783
:100FCC0001305101A000EF2F400197139D135101E7
:040FDC00A001080068
:100FE00051013608F000F1017008BB00A82551013D
:080FF0003508BB00A82508002C
:080FF8004001931313130800DC
:1010000051013508013A031D1B2859018E11901515
:101010000630FB004730FC00A030FD00FD0B0E2821
:10102000FC0B0E28FB0B0E28000090118E150130D2
:101030005101A2002F2859010E1110150630FB0096
:101040004730FC00A030FD00FD0B2428FC0B2428B9
:10105000FB0B2428000010110E155101A2010800FD
:1010600051013508013A031D512840011312191688
:101070000630FB004730FC00A030FD00FD0B3E2891
:10108000FC0B3E28FB0B3E28000019121316013002
:101090005001EE0040011311191501304F01E50018
:1010A0006A284001931199150630FB004730FC0077
:1010B000A030FD00FD0B5A28FC0B5A28FB0B5A28C8
:1010C0000000991193155001EE01400113111911FF
:0610D0004F01E5010800DC
:1010D600FF304001EE00FF30EC004501EE0101302B
:1010E6004D01D3000130BC004101EF010130400148
:1010F600A4000130BE000130E8000130E4000130F8
:101106004201EF00FF304001EA00FF30EB0008002B
:1011160051013508013A031DA628400197129D1674
:101126000630FB004730FC00A030FD00FD0B99287F
:10113600FC0B9928FB0B992800009D12971601308D
:101146005101A400BA28400117131D170630FB00F1
:101156004730FC00A030FD00FD0BAF28FC0BAF288C
:10116600FB0BAF2800001D1317175101A40108003F
:1011760050011E1770309B005101350850019A002E
:101186001E141D08F100F0011C08F0040030F104E3
:0211960008004F
:1011980051013508013A031DFF2822080319E728E1
:1011A80059010E1110150630FB004730FC00A03025
:1011B800FD00FD0BDD28FC0BDD28FB0BDD28000006
:1011C80010110E15F92859018E1190150630FB00E3
:1011D8004730FC00A030FD00FD0BF028FC0BF02888
:1011E800FB0BF028000090118E15510122080130E8
:1011F800031D0030A2003508023A031D14295001CE
:101208006F0803190B2959018E1090100E295901E6
:101218008E10901450016F080130031D0030EF004C
:1012280051013508033A031D2929230803192029E8
:1012380059010E101010232959010E1010145101D4
:1012480023080130031D0030A3003508043A031DAC
:101258005B29240803194329400117131D17063079
:10126800FB004730FC00A030FD00FD0B3929FC0BCA
:101278003929FB0B392900001D131717552940017F
:1012880097129D160630FB004730FC00A030FD0089
:10129800FD0B4C29FC0B4C29FB0B4C2900009D1223
:1012A8009716510124080130031D0030A4003508A9
:1012B800053A031D6F292008031966294001971371
:1012C8009D136929400197139D175101200801308A
:1012D800031D0030A0003508063A031D83292108A4
:1012E80003197A2959010E1210127D2959010E127B
:1012F8001016510121080130031D0030A1003508E6
:10130800073A031DB62950016E0803199E294001AA
:10131800931199150630FB004730FC00A030FD0002
:10132800FD0B9429FC0B9429FB0B942900009911BF
:101338009315B0294001131219160630FB004730E7
:10134800FC00A030FD00FD0BA729FC0BA729FB0B17
:10135800A72900001912131650016E080130031D49
:101368000030EE0051013508083A031DCC294F0121
:1013780065080319C329400113111911C629400131
:10138800131119154F0165080130031D0030E500E0
:0213980008004B
:10139A0051013508013A031DD92959010E121016B7
:1013AA0001305101A100DE2959010E12101251011A
:0413BA00A101080085
:1013BE0051013508013A031DF92959010E11101179
:1013CE000630FB004730FC00A030FD00FD0BED2980
:1013DE00FC0BED29FB0BED29000010150E1501304D
:1013EE005101A2003508023A031D032A59018E103D
:1013FE00901401305001EF0051013508033A031DDE
:10140E000E2A59010E10101401305101A300350897
:10141E00043A031D272A400117131D130630FB0043
:10142E004730FC00A030FD00FD0B1B2AFC0B1B2AD5
:10143E00FB0B1B2A00001D17171701305101A400CA
:10144E003508053A031D312A400197139D170130C7
:10145E005101A0003508063A031D3B2A59010E1210
:10146E00101601305101A1003508073A031D542A08
:10147E004001931199110630FB004730FC00A0305B
:10148E00FD00FD0B482AFC0B482AFB0B482A0000E6
:10149E009915931501305001EE0051013508083AA7
:1014AE00031D5F2A40011311191501304F01E5008C
:0214BE00080024
:1014C00051013508013A031D792A59010E111015F1
:1014D0000630FB004730FC00A030FD00FD0B6E2AFB
:1014E000FC0B6E2AFB0B6E2A000010110E15510129
:1014F000A2013508023A031D822A59018E1090106C
:101500005001EF0151013508033A031D8C2A59019E
:101510000E1010105101A3013508043A031DA42A2E
:10152000400117131D170630FB004730FC00A030A8
:10153000FD00FD0B992AFC0B992AFB0B992A000050
:101540001D1317175101A4013508053A031DAD2AD3
:10155000400197139D135101A0013508063A031D60
:10156000B62A59010E1210125101A1013508073A8D
:10157000031DCE2A4001931199150630FB00473018
:10158000FC00A030FD00FD0BC32AFC0BC32AFB0BA3
:10159000C32A0000991193155001EE01510135083D
:1015A000083A031DD82A4001131119114F01E50112
:0215B000080031
:1015B20051013608103C031DE02A3508003C03188F
:1015C200E62AFF30B5000F30B6008031662288313E
:1015D200C0305101BB008031DC2588314D015C08EF
:1015E2005101BB008031DC25883151013508F00002
:1015F2003608F100F136F00CF136F00CF136F00C51
:10160200F136F00CFF307005BB008031DC258831EB
:101612000430F00051013508BB0070080319142B87
:10162200BB35FF3E0F2BF030BB058031DC25883106
:1016320080310626883140019D157C01D11540017B
:0416420097150800F0
:10164600400113109513961116129612161396133F
:10165600151059010F118F11400195101511951193
:1016660015129512151396101610DF305101BB0096
:101676000630BC00BD011030BE000030BF00803116
:1016860033268831A030BB000730BC00BD011030C6
:0E169600BE000030BF008031332688310800CE
:1016A400FF304D01DD00DE0140018E1D692B4D012F
:1016B4005D085E04031D632B400114167E0154165D
:1016C400692B01304D01DD020030DE3B562B080052
:1016D40051013508013A031D762B59010E101014DF
:1016E40001305101A3007B2B59010E101010510140
:0416F400A301080046
:1016F80051013508B8003608B900B701273036025D
:10170800031D882B10303502031CB32B1030F40056
:101718002730F5003808F0003908F1008031172625
:101728008831303070075101C0008031362288314D
:101738001030F4002730F50051013808F00039085E
:10174800F1008031172688317808F0007908F10017
:1017580070085101B8007108B9000130B7000330B2
:101768003902031DB92BE83038020318BF2B37089C
:10177800031DBF2BE82BE830F4000330F5003808D0
:10178800F0003908F10080311726883130307007B1
:101798005101C000803136228831E830F40003302E
:1017A800F50051013808F0003908F100803117269A
:1017B80088317808F0007908F10070085101B80004
:1017C8007108B9000130B70000303902031DEE2B53
:1017D800643038020318F42B3708031DF42B1D2C32
:1017E8006430F4000030F5003808F0003908F100E2
:1017F800803117268831303070075101C0008031A0
:10180800362288316430F4000030F5005101380880
:10181800F0003908F1008031172688317808F00087
:101828007908F10070085101B8007108B900013059
:10183800B70000303902031D232C0A303802031880
:10184800292C3708031D292C502C0A30F4000030AD
:10185800F5003808F0003908F10080311726883182
:10186800303070075101C0008031362288310A308B
:10187800F4000030F50051013808F0003908F10093
:101888008031172688317808F0007908F10070084F
:101898005101B8007108B90030303807C0008031F4
:0618A80036228831080021
:1018AE0010305101B7002730B8003708F000380863
:1018BE00F1000130B7020030B83B70087104031913
:1018CE00812C35088400360885000008F100710867
:1018DE00003A031D732C812C3508840036088500D0
:1018EE000008C0008031362288315101B50A031933
:0618FE00B60A5C2C080094
:101904004001FB01FA01F9018030F800F10CF00C00
:10191400031C952C7408F90775080318750FFA074A
:101924000318FB0A0310F01F9D2C7408FA077508AE
:101934000318750FFB07FB0CFA0CF90CF80C031CCD
:10194400882C7B08F3007A08F2007908F100780803
:04195400F000080097
:101958005101B601B701B801B9011130BB0080319E
:10196800D122883199101811931012113F30FC00C0
:101978005530FD00FD0BBE2CFC0BBE2C9914181520
:101988009310121151013508BB008031D1228831E2
:1019980099101811931012113F30FC005530FD00BA
:1019A800FD0BD42CFC0BD42C5101BA0114303A0293
:1019B8000318ED2C2830BB008031FB2388317008D8
:1019C8005101B6077108B73D0030B83DB93DBA0AB4
:1019D800DA2C1430F400F501F601F7013608F000AE
:1019E8003708F1003808F2003908F3008031122472
:0C19F80088319914181593101211080082
:101A04005101A901AA01AB01AC01A60132302602A1
:101A140003181B2D3730BB008031FB23883170083D
:101A24005101A9077108AA3D0030AB3DAC3DA60A9F
:101A3400082D3230F400F501F601F7012908F00011
:101A44002A08F1002B08F2002C08F300803112243C
:101A5400883170085101A7007108A8000030710294
:101A6400031D362D203070020318462DA4304A0180
:101A7400ED000630EE0078304601EE000530EF0050
:101A84004D01C001F0013A2E51012808003C031D0C
:101A94004D2D27086E3C0318662D00302802031DC7
:101AA400552DAA3027020318662D08304A01ED008F
:101AB4000730EE00DC304601EE000530EF004D014A
:101AC400C0010130F0003A2E51012808003C031DEA
:101AD4006D2D2708F03C0318862D01302802031DC4
:101AE400752D683027020318862D6C304A01ED00ED
:101AF4000730EE0040304601EE000630EF004D01A5
:101B0400C0010230F0003A2E51012808013C031DA7
:101B14008D2D2708803C0318A62D01302802031DB3
:101B2400952DE03027020318A62DD0304A01ED0090
:101B34000730EE00A4304601EE000630EF004D0100
:101B4400C0010330F0003A2E51012808023C031D65
:101B5400AD2D2708503C0318C62D02302802031D62
:101B6400B52DA03027020318C62DF0304A01ED0030
:101B74000A30EE00C4304601EE000930EF004D019A
:101B8400C0010430F0003A2E51012808023C031D24
:101B9400CD2D2708C03C0318E62D03302802031D71
:101BA400D52D143027020318E62D54304A01ED00D8
:101BB4000B30EE0028304601EE000A30EF004D01F4
:101BC400C0010530F0003A2E51012808033C031DE2
:101BD400ED2D2708403C0318062E03302802031D70
:101BE400F52D903027020318062EB8304A01ED0077
:101BF4000B30EE008C304601EE000A30EF004D0150
:101C0400C0010630F0003A2E51012808033C031DA0
:101C14000D2E2708A93C0318262E03302802031D85
:101C2400152EF93027020318262E1C304A01ED0028
:101C34000C30EE00F0304601EE000A30EF004D01AA
:101C4400C0010730F0003A2E4D010130C0002030B1
:101C54005101B5000430B60080317C278831270853
:101C6400B5002808B6008031F0278831FF30F00035
:021C7400080066
:101C76005101B501BB2070085101A6007108A700EB
:101C86007108003C031D492E7008003C0318802E85
:101C960000302702031D512E113026020318802E14
:101CA60026085001E200510127085001E3000130E7
:101CB6005101B500BB207008E500E4010230510176
:101CC600B500BB207008E4047108E5040330510137
:101CD600B500BB207008E6007108E700043051012A
:101CE600B500BB207008E900E80105305101B500D8
:0C1CF600BB207008E8047108E904080035
:101D02005101B501BB2070085101A6004001191014
:101D12009B139C111C129C121C139C131B10590127
:101D22001111911140019B101B119B111B129B124F
:101D32001B137008003C03184C2F1130510126026E
:101D420003184C2F2608013A031DA92E400119142D
:101D520051012608023A031DB02E40019B17510182
:101D62002608033A031DB72E40019C15510126088F
:101D7200043A031DBE2E40011C1651012608053AE5
:101D8200031DC52E40019C1651012608063A031D6B
:101D9200CC2E40011C1751012608073A031DD32EF1
:101DA20040019C1751012608083A031DDA2E400112
:101DB2001B1451012608093A031DE12E5901111580
:101DC200510126080A3A031DE82E590191155101C5
:101DD20026080B3A031DEF2E40019B1451012608E1
:101DE2000C3A031DF62E40011B15510126080D3A2F
:101DF200031DFD2E40019B15510126080E3A031DBD
:101E0200042F40011B16510126080F3A031D0B2F08
:101E120040019B1651012608103A031D122F400162
:101E22001B1703305101B500BB2000307106031DA2
:101E32001C2F00307006031D212F40019C101C1422
:101E420003305101B500BB2000307106031D2B2F5A
:101E520001307006031D302F40019C141C105230BB
:101E6200FB002B30FC000030FD004001FD0B362F43
:101E7200FC0B362FFB0B362F00001C109C10293058
:101E8200FB009630FC007F30FD00FD0B462FFC0B63
:081E9200462FFB0B462F080050
:101E9A0040018D1E672F4A016608003A031D672F0D
:101EAA000130E60049015E084F01E60049015F087A
:101EBA004F01E700490160084F01E8004901610844
:101ECA004F01E9004A016608013A031DB12F40019A
:101EDA008D1AB12F1E304F016607F1000030673DA1
:101EEA00F2000030683DF3000030693DF4007408E8
:101EFA0049016102031D8B2F73086002031D8B2F9A
:101F0A0072085F02031D8B2F71085E0203188F2F60
:101F1A00EF01B12F2C305101B5000530B6008031E8
:101F2A007C2788314A01E6015101B501302051016F
:101F3A00B5010020B5018B2040011D125230FB0073
:101F4A002B30FC000030FD00FD0BA92FFC0BA92F44
:0A1F5A00FB0BA92F0000171608006A
:101F64000B178B177E0155125416D5114E010C1206
:041F74001616080035
:101F78004001991493101815121159011114911454
:101F880040011814981459010F108F1040011210B5
:101F980092101A171A149A1418161413141094106D
:101FA8001212C5305101BB000730BC00BD01203002
:0E1FB800BE000030BF008031332688310800A3
:101FC60012001E00F003031DE32FF103031DE32F90
:021FD600080001
:101FD8004F0197101B1301304401910001308E000E
:101FE8004E011010E03044018D00C0308C004E01CD
:081FF8001A14C0308B00080030
:1020000040016A08003A031D2D28490161084D016D
:102010003302031D1B28490160084D013202031DD4
:102020001B2849015F084D013102031D1B2849018E
:102030005E084D01300203182D2840305101B500D3
:102040000030B60080317C27903102304001EA0038
:102050005101B50188316A23903140013F08003AAF
:10206000031D70283E0803197028490161084C01BE
:102070005002031D4B28490160084C014F02031D0B
:102080004B2849015F084C014E02031D4B284901B2
:102090005E084C014D020318702856305101B500FE
:1020A0000030B60080317C279031B5018031642644
:1020B0009031FF304001BF00BE013D305101B500FD
:1020C0000630B6002930B7000630B8001030B9002D
:1020D0000030BA0080317626903180311C27903153
:1020E00040012508003A031D99282408031999285E
:1020F000490161084C013C02031D8E28490160081A
:102100004C013B02031D8E2849015F084C013A0235
:10211000031D8E2849015E084C01390203189928D5
:102120005101B501883100209031FF304001A500F8
:10213000A40140016B08003A031DC628490161084B
:102140004D013702031DB428490160084D013602D4
:10215000031DB42849015F084D013502031DB42851
:1021600049015E084D0134020318C6282730510189
:10217000B5000030B60080317C279031023040013C
:10218000EB005101B5018831CD2190314001260885
:10219000003A031D02296408031902294901610854
:1021A0004C016802031DE428490160084C016702E4
:1021B000031DE42849015F084C016602031DE42861
:1021C00049015E084C016502031802295101B5015D
:1021D0008031DE279031FF304001A600E401A030BD
:1021E0005101B5000630B6005530B7000630B800D2
:1021F0001030B9000030BA0080317626903180313D
:102200001C27903140016908003A031D2B296808FA
:1022100003192B29490161084C016C02031D202977
:10222000490160084C016B02031D202949015F0828
:102230004C016A02031D202949015E084C01690214
:1022400003182B295101B50188318B209031FF30C3
:102250004001E900E80140016508003A031DAF298B
:10226000490161084C015402031D462949016008D7
:102270004C015302031D462949015F084C015202DB
:10228000031D462949015E084C01510203187629B5
:10229000A0305101B5000030B60080317C2790316C
:1022A000B501883130209031FF304001E5006708EA
:1022B000013A031D72290130E600323049015E0700
:1022C000D50000305F3DD6000030603DD7000030C3
:1022D000613DD800AE305101B5000030B60080310C
:1022E0007C27903180311C279031AF2940013E0876
:1022F000003A031D96296608031D9629A030510156
:10230000B5000330B60080317C27903101304001A8
:10231000E6000A3049015E07D50000305F3DD60077
:102320000030603DD7000030613DD80040016408B6
:10233000003A031DAF2942016F08013A031DAF297E
:102340005101B5018831302090314201EF01453013
:102350005101B5000330B60080317C279031080070
:102360005101A701A801A901AA014101EF015101F1
:10237000A601103026020318D12929308600063024
:102380008700260886070318870A810155308600D2
:1023900006308700260886070318870A8101A60AE7
:1023A000B9294001E7014501ED014D01D401D501F5
:1023B0005101A60150016C08510126020318392B66
:1023C0002608F000F101F035F10DC53070078400EA
:1023D0000730713D85000008F10001310008F2006E
:1023E0007208003C031DF6297108FA3C0318362BCD
:1023F0002608F000F101F035F10DC530F007073087
:10240000F13D700884007108850000084D01D40773
:1024100001310008D53D700884007108850000086E
:10242000F20001310008F30046016F087302031D3A
:102430001B2A6E0872020318512A01304101EF0075
:1024400001304001E700D0305101B5000330B60043
:1024500080317C2790312608BB008031A82590313F
:102460005101260A4C01ED000230EF00510126080F
:10247000F000F101F035F10DC53070078400073030
:10248000713D850000084D01BA0001310008BB0014
:1024900045016F080319512A4D015608B800570825
:1024A000B90051012608F000F101F035F10DC530F9
:1024B000700784000730713D85000008F10001318C
:1024C0000008F200720847015F02031D692A7108C3
:1024D0005E020318922A01304101EF0001304501EC
:1024E000ED005101260A4C01ED000330EF005101CF
:1024F0002608F000F101F035F10DC53070078400B9
:102500000730713D850000084D01BA000131000817
:10251000BB0045016F080319922A4D015608B80007
:102520005708B9004A016E08FF3A031D992AFF3087
:102530006D060319E32A51012608F000F101F03578
:10254000F10DC530700784000730713D850000082B
:10255000F10001310008F2004A016E087202031D09
:10256000B32A6D0871020318E32A01305101A80053
:102570002930860006308700260886070318870A58
:10258000013081000130AA00260A4C01ED00EF0164
:1025900051012608F000F101F035F10DC53070074A
:1025A00084000730713D850000084D01BA000131FB
:1025B0000008BB0045016F080319E32A4D015608C6
:1025C000B8005708B9004A016C08FF3A031DEA2A0F
:1025D000FF306B060319362B51012608F000F1017C
:1025E000F035F10DC530700784000730713D85006E
:1025F0000008F10001310008F20072084A016C0283
:10260000031D042B71086B020318362B0130510196
:10261000A700260A4C01ED000130EF005101260809
:10262000F000F101F035F10DC5307007840007307E
:10263000713D850000084D01BA0001310008BB0062
:1026400045016F080319292B4D015608B80057089A
:10265000B9005530860006308700510126088607EC
:102660000318870A013081000130A9005101A60A30
:10267000DA294D015408D6005508D700013045012C
:10268000EF0041016F08013A031D882B40016708E4
:10269000031D502B45016E08013A0319502B882B5E
:1026A000B8305101B5000330B60080317C2790313D
:1026B00041016F085101BB008031A82590316708A6
:1026C0005101BB008031A825903145016E08013AC7
:1026D0000130031D00305101BB008031A82590312D
:1026E0004501EE014001E5012C3049015E074C0136
:1026F000D100013049015F3D4C01D2000030490159
:10270000603D4C01D30000304901613D4C01D400D3
:1027100041016F08003A031DB22B45016E08003AD3
:10272000031DB22B0130EE0042016F08013A031D78
:10273000AA2B01305101B500883130209031013091
:102740004001E50059305101B5000330B600803139
:102750007C27903151016530B5000330B6008031DF
:102760007C2790314D015308013A031D752C51010E
:102770002A08013A031DE32B40016A08FF3A0319B6
:10278000C62B6A08013A0319C62BE32BEA019630DF
:1027900049015E074D01B000003049015F3D4D0128
:1027A000B10000304901603D4D01B20000304901E7
:1027B000613D4D01B300C4305101B5000330B60096
:1027C00080317C27903151012A08003A031D012CE9
:1027D00040016A08003A0319F22B6A08FF3A03190C
:1027E000F22B012C0130EA0001305101B500883193
:1027F0006A239031C730B5000230B60080317C27A3
:10280000903151012808013A031D3B2C40016E080C
:10281000013A0319102C6E08FF3A0319102C3B2CB7
:10282000EE01BF01A501963049015E074C01CD00C4
:10283000003049015F3D4C01CE0000304901603D50
:102840004C01CF0000304901613D4C01D0005E30A9
:1028500049015E074C01B900013049015F3D4C015F
:10286000BA0000304901603D4C01BB000030490115
:10287000613D4C01BC0051012808003A031D752C34
:1028800040016E08003A03194A2C6E08FF3A0319FA
:102890004A2C752C0130EE003E08013A031D602CD5
:1028A000BB305101B5000230B60080317C27903139
:1028B0000130B50080316426903101304001BF0005
:1028C0002408013A031D6D2C01305101B5008831F7
:1028D0000020903101304001A50020305101B500A9
:1028E0000330B60080317C2790314D013C08013A1D
:1028F000031D412D51012908013A031DA62C400159
:102900006B08FF3A0319892C6B08013A0319892CCB
:10291000A62CEB01963049015E074D01B400003052
:1029200049015F3D4D01B50000304901603D4D0159
:10293000B60000304901613D4D01B700D63051016C
:10294000B5000230B60080317C2790315101290852
:10295000003A031DC42C40016B08003A0319B52C42
:102960006B08FF3A0319B52CC42C0130EB00013081
:102970005101B5008831CD219031A030B500023031
:10298000B60080317C27903151012708013A031DA0
:10299000062D40016C08013A0319D32C6C08FF3A4C
:1029A0000319D32C062DEC01A601E901963049014B
:1029B0005E074C01E500003049015F3D4C01E60037
:1029C00000304901603D4C01E70000304901613DA4
:1029D0004C01E8005E3049015E074C01E90001301E
:1029E00049015F3D4C01EA0000304901603D4C0166
:1029F000EB0000304901613D4C01EC005B305101BE
:102A0000B5000230B60080317C2790315101270893
:102A1000003A031D412D40016C08003A0319152DA1
:102A20006C08FF3A0319152D412D0130EC0066307A
:102A30005101B5000230B60080317C279031400151
:102A40006408013A031D342DAF305101B500023046
:102A5000B60080317C2790310130B5008031DE270F
:102A6000903101304001A6006808013A031D412D54
:102A700001305101B50088318B2090310130400187
:042A8000E900080061
:102A840040010E1D5B2D49016F08003A031D5B2DAB
:102A94000130EF005E084D01D80049015F084D0187
:102AA400D900490160084D01DA00490161084D016E
:102AB400DB0049016F08013A031D932D40010E19F3
:102AC400932D1E304D015807F1000030593DF2009E
:102AD40000305A3DF30000305B3DF40074084901B6
:102AE4006102031D7F2D73086002031D7F2D720890
:102AF4005F02031D7F2D71085E020318832DEF0111
:102B0400932DE0305101B5000330B60080317C27AD
:102B140090314901EF0188316B2090318031A12639
:042B240090310800E4
:102B28004F01340803199A2D400119144F01350833
:102B38000319A02D40019B174F0136080319A62D34
:102B480040019C154F0137080319AC2D40011C1694
:102B58004F0138080319B22D40019C164F0139085E
:102B68000319B82D40011C174F013A080319BE2D4F
:102B780040019C174F013B080319C42D40011B1449
:102B88004F013C080319CA2D590111154F013D0881
:102B98000319D02D590191154F013E080319D62D5F
:102BA80040019B144F013F080319DC2D40011B1500
:102BB8004F0140080319E22D40019B154F014108C0
:102BC8000319E82D40011B164F0142080319EE2D89
:102BD80040019B164F0143080319F42D40011B17B0
:102BE80040019C101C142930FB009630FC007F30FB
:102BF800FD00FD0BFD2DFC0BFD2DFB0BFD2D9C148D
:102C08001C102930FB009630FC007F30FD00FD0BC6
:102C18000B2EFC0B0B2EFB0B0B2E1C109C1052309A
:102C2800FB002B30FC000030FD00FD0B192EFC0BC7
:0A2C3800192EFB0B192E00000800F6
:102C42005101A901AA01AB01AC01A6013230260251
:102C520003183A2E2930BB008031FB2390317008D3
:102C62005101A9077108AA3D0030AB3DAC3DA60A4F
:102C7200272E3230F400F501F601F7012908F000A1
:102C82002A08F1002B08F2002C08F30080311224EC
:102C9200903170085101A7007108A800003071023C
:102CA200031D552E203070020318652EC4304A01D0
:102CB200EB000930EC00F0304701DE000A30DF00A3
:102CC2004D01C001F001572F51012808013C031D9D
:102CD2006C2E2708703C0318852E01302802031D34
:102CE200742E803027020318852E28304A01EB000B
:102CF2000A30EC0054304701DE000B30DF004D019A
:102D0200C0010130F000572F51012808023C031D79
:102D12008C2E2708E53C0318A52E03302802031D3C
:102D2200942E203027020318A52E8C304A01EB0086
:102D32000A30EC00B8304701DE000B30DF004D01F5
:102D4200C0010230F000572F51012808033C031D37
:102D5200AC2E2708F03C0318C52E04302802031DB0
:102D6200B42E203027020318C52EF0304A01EB00A2
:102D72000A30EC001C304701DE000C30DF004D0150
:102D8200C0010330F000572F51012808053C031DF4
:102D9200CC2E2708703C0318E52E05302802031DAF
:102DA200D42EB03027020318E52EAC304A01EB00D6
:102DB2000D30EC00D8304701DE000E30DF004D014F
:102DC200C0010430F000572F51012808063C031DB2
:102DD200EC2E2708403C0318052F06302802031D5D
:102DE200F42E803027020318052F10304A01EB0021
:102DF2000E30EC003C304701DE000F30DF004D01A9
:102E0200C0010530F000572F51012808073C031D6F
:102E12000C2F2708103C0318252F07302802031D0A
:102E2200142F403027020318252F74304A01EB007B
:102E32000E30EC00A0304701DE000F30DF004D0104
:102E4200C0010630F000572F51012808073C031D2E
:102E52002C2F2708B03C0318452F07302802031DEA
:102E6200342FDA3027020318452FD8304A01EB00FD
:102E72000E30EC0004304701DE001030DF004D015F
:102E8200C0010730F000572F4D010130C0002E3035
:102E92005101B5000430B60080317C2790312708FB
:0E2EA200B5002808B6008031F02790310800F6
:102EB00059010E134001971117114D01DC01C20198
:102EC0005830DC005101B501B6018831D92290316A
:102ED00058304D01C200FF305101B5000730B60037
:082EE0008031A02790310800A9
:102EE80040018E1A8E2F49015D08003A031D8E2F6E
:102EF8000130DD005E08E2005F08E3006008E400DE
:102F08006108E500FB305101B500A330B6008831F7
:102F18005724903149015D08013A031DCD2F143023
:102F28006207F1000030633DF2000030643DF300B9
:102F38000030653DF40061087402031DAD2F600880
:102F48007302031DAD2F5F087202031DAD2F5E08CB
:102F580071020318CD2FB6305101B500A330B60069
:102F680088315724903101304901DA0005305E0775
:102F7800D50000305F3DD6000030603DD7000030FE
:102F8800613DD80088312323903102304901DD00AA
:042F9800CD2F080031
:102F9C00400114121A128831522390314001141638
:022FAC0008001B
:1030000012305101B5008831AC249831700851015B
:10301000A6007108A70049016E085101B50088316A
:10302000AC2498315101AA01AB01AC01AD0170088B
:10303000A8007108A90026087002A8002708713BA3
:10304000A90049016E18352851012808F000290807
:10305000F100FF30F400FF30F50088318224983110
:1030600070085101A8007108A90051018030F000DA
:10307000803029067002031D3F282808003C0318F1
:10308000A2288030F000803029067002031D4A28F3
:103090002808FA3C03189A2880302906F00080306E
:1030A000063A7002031D5628A430280203189A28F5
:1030B0002808AA002908AB000030AB1BFF30AC0089
:1030C000AD002A08F0002B08F1002C08F2002D08B2
:1030D000F3000030F4000A30F500F601F70180310A
:1030E000E626983170085101AA007108AB007208F9
:1030F000AC007308AD00E830F4000330F500F601D1
:10310000F70180311224983170085101AA0071082A
:10311000AB007208AC007308AD0049016E08013ABB
:10312000031D992814305101AA070030AB3DAC3D76
:10313000AD3DA1285101A801A901AA01AB01AC0133
:10314000AD01A9285101AA01AB01AC01AD01A80153
:10315000A90151012A08AE002B08AF00B001B1014E
:10316000013049016E02F300F4010030F43B7308B2
:10317000F0007408F100F035F10DC53070078600DD
:103180000730713D870051012E0881002F08413121
:1031900081003108003C031DD7283008003C031D86
:1031A000D7282F08003C031DD7282E08FA3C031807
:1031B0008F29013049016E02F000F1010030F13B2E
:1031C000B430700786000730713D87000130810000
:1031D0004F014408031DF02849016E085001EC001E
:1031E000003051013102031D032900303002031D5C
:1031F00003294A016E0851012F02031D03294A01C8
:103200006D0851012E02031C27293108003C031DC3
:1032100016293008003C031D16292F084A016C02AC
:10322000031D162951012E084A016B02031C272990
:10323000013049016E02F000F1010030F13BA03095
:10324000700786000730713D870081017C294901A4
:1032500001306E02F000F1010030F13BA030700748
:1032600086000730713D8700810151013108003C23
:10327000031D47293008003C031D47292F084A0138
:103280006E02031D472951012E084A016D02031CDD
:103290005829013049016E02F000F1010030F13B84
:1032A000A030700786000730713D87000130810033
:1032B000003051013102031D6B2900303002031D23
:1032C0006B294A016C0851012F02031D6B294A0129
:1032D0006B0851012E02031C7C29013049016E024A
:1032E000F000F1010030F13BA0307007860007309C
:1032F000713D87000230810049016E08F000F10144
:10330000F035F10D2030700786000830713D8700E0
:1033100051012E0881002F0841318100AF29013071
:1033200049016E02F000F1010030F13BA03070075E
:1033300086000730713D8700810101306E02F00088
:10334000F1010030F13BB430700784000730713D6B
:10335000850000080319AF2901305001ED00490133
:10336000EE0A6E08103C0318572C4F014408031D49
:10337000BB290130C40001304901EE004B01200897
:10338000031DC4290130A00001304A01EF00E7010C
:10339000E801E901EA014F01ED01EE01FF30EB0028
:1033A000FF30EC00EA015001EB01EA014F01EF01AF
:1033B0004B01EF01EE015101B2011030320203184E
:1033C000C32AB4308400073085003208840703180C
:1033D000850A00080319BF2A3208F000F101F03510
:1033E000F10DC5307007F3000730713DF40073082C
:1033F0008400740885000008F00001310008F10025
:103400007008B3007108B40070084A01E70771083A
:10341000E83D0030E93DEA3D73088400740885000A
:103420000008F10001310008F20072084F016E023D
:10343000031D1C2A71086D020318302A510132083D
:10344000F000F101F035F10DC53070078400073050
:10345000713D850000084F01ED0001310008EE00CC
:1034600051013208F000F101F035F10DC53070075F
:1034700084000730713D85000008F100013100082B
:10348000F2004F016C087202031D482A6B0871029A
:1034900003185C2A51013208F000F101F035F10DFA
:1034A000C530700784000730713D850000084F016A
:1034B000EB0001310008EC0064304A016D07F100B7
:1034C00000306E3DF200510134087202031D6A2A79
:1034D00033087102031C6F2A01305001EB005101C7
:1034E00034084A016E02031D792A510133084A014A
:1034F0006D02031C7E2A01304F01EA0064304A014C
:103500006B02F10000306C3BF20072085101340292
:10351000031D8C2A71083302031C912A01304F01CC
:10352000EF00510134084A016E02031D9B2A51012C
:1035300033084A016D02031CA02A01305001EA0041
:10354000510134084A016E02031DAA2A51013308B1
:103550004A016D02031CAF2A01304B01EF004A0102
:103560006C0851013402031DB92A4A016B0851014C
:103570003302031CBE2A01304B01EE00C02AC32ACD
:103580005101B20ADD294A016A08003C031DD22A12
:103590006908003C031DD22A6808FF3C031DD22A9B
:1035A0006708FF3C0318DA2AFF30E700FF30E80025
:1035B000E901EA0167085001C2004A0168085001A8
:1035C000C30040016B08023A031D102B50016B0829
:1035D000013A031D0F2B4B016E08003A031D0F2B00
:1035E000963049015E074D01B400003049015F3D4E
:1035F0004D01B50000304901603D4D01B60000307D
:103600004901613D4D01B70003304001EB004530F9
:103610005101B5000130B60080317C2798319C2BD8
:1036200040016B08033A031D9C2B50016B08003AC4
:10363000031D252B02304001EB0036305101B5004F
:103640000130B60080317C279831490161084D0175
:103650003702031D3B2B490160084D013602031D53
:103660003B2B49015F084D013502031D3B2B4901EE
:103670005E084D01340203184E2B01305101B50094
:103680008831CD21983101304001EB0020305101CB
:10369000B5000130B60080317C2798314F016A08AF
:1036A000013A031D9C2B4B016E08003A031D9C2B15
:1036B000CB305101B5000030B60080317C27983105
:1036C0004F016B085101B5004F016C085101B60064
:1036D00088317C239831C2305101B5000030B600EA
:1036E00080317C2798314A016D085101B5004A01AB
:1036F0006E085101B60088317C239831DD305101CC
:10370000B5000030B60080317C27983164304A0122
:103710006D075101B50000304A016E3D5101B60000
:1037200088317C23983101305101B5008831CD2199
:10373000983101304001EB0040016A08023A031D54
:10374000CB2B4F016F08013A031DCA2B4B016F08A9
:10375000003A031DCA2B963049015E074D01B000A7
:10376000003049015F3D4D01B10000304901603D2D
:103770004D01B20000304901613D4D01B3000330FD
:103780004001EA00A0305101B5000130B60080319F
:103790007C279831572C40016A08033A031D572CA7
:1037A0004F016F08003A031DE02B02304001EA0090
:1037B0005C305101B5000130B60080317C27983172
:1037C000490161084D013302031DF62B49016008D0
:1037D0004D013202031DF62B49015F084D013102F4
:1037E000031DF62B49015E084D0130020318092C18
:1037F00001305101B50088316A239831FF30400112
:10380000EA0020305101B5000230B60080317C273B
:10381000983150016A08013A031D572C4B016F087B
:10382000003A031D572CCE305101B5000130B600CF
:1038300080317C2798314F016D085101B5004F014F
:103840006E085101B60088317C239831E530510172
:10385000B5000130B60080317C2798314A016B08F1
:103860005101B5004A016C085101B60088317C2332
:1038700098314A305101B5000230B60080317C27C2
:10388000983164304A016B025101B50000304A01A1
:103890006C3B5101B60088317C23983101305101D5
:1038A000B50088316A239831FF304001EA004F01AA
:1038B0004408013A031DA52C36305101B5000230F1
:1038C000B60080317C27983150016C085101BB0053
:1038D0008031A825983102304F01C4005101B20156
:1038E00050016C08510132020318972CB430840047
:1038F00007308500320884070318850A0008F000A5
:103900007008031D862C01304C01EE00B430840099
:10391000073085005101320884070318850A000822
:10392000BB008031A82598315101B20A702CB73004
:10393000B5000130B60080317C2798314C016E080B
:0C3940005101BB008031A825983108001F
:10394C00400119109B139C111C129C121C139C13EC
:10395C001B1059011111911140019B101B119B114E
:10396C001B129B121B134D015F08023A031DC42C42
:10397C0040011914131001304701ED004D0160088E
:10398C00023A031DCB2C40019B174D016108023AF2
:10399C00031DD22C40019C154D016208023A031DF7
:1039AC00D92C40011C164D016308023A031DE02C72
:1039BC0040019C164D016408023A031DE72C40019E
:1039CC001C174D016508023A031DEE2C40019C1793
:1039DC004D016608023A031DF52C40011B144D01E4
:1039EC006708023A031DFC2C590111154D0168089A
:1039FC00023A031D032D590191154D016908023A34
:103A0C00031D0A2D40019B144D016A08023A031D47
:103A1C00112D40011B154D016B08023A031D182D89
:103A2C0040019B154D016C08023A031D1F2D4001EE
:103A3C001B164D016D08023A031D262D40019B16E5
:103A4C004D016E08023A031D2D2D40011B1740013C
:103A5C009C1496101C1016142A30FC008D30FD009E
:103A6C00FD0B362DFC0B362D000000009C101910A0
:103A7C009B139C111C129C121C139C131B105901A0
:103A8C001111911140019B101B119B111B129B12C8
:103A9C001B130B30FC006230FD00FD0B532DFC0B97
:103AAC00532D00004D015F08013A031D5F2D4001AD
:103ABC0019144D016008013A031D662D40019B1736
:103ACC004D016108013A031D6D2D40019C154D01FE
:103ADC006208013A031D742D40011C164D01630848
:103AEC00013A031D7B2D40019C164D016408013ADF
:103AFC00031D822D40011C174D016508013A031D61
:103B0C00892D40019C174D016608013A031D902D2B
:103B1C0040011B144D016708013A031D972D5901F3
:103B2C0011154D016808013A031D9E2D590191157F
:103B3C004D016908013A031DA52D40019B144D014F
:103B4C006A08013A031DAC2D40011B154D016B0891
:103B5C00013A031DB32D40019B154D016C08013A30
:103B6C00031DBA2D40011B164D016D08013A031DB2
:103B7C00C12D40019B164D016E08013A031DC82D45
:103B8C0040011B1740011C1416109C1096142A306F
:103B9C00FC008D30FD00FD0BD12DFC0BD12D000058
:083BAC0000001C1016140800B3
:103BB400FF305101A7000F30A800A901AA01A601F6
:103BC40050016C085101260203185A2E2608F000F1
:103BD400F101F035F10DC530700784000730713DF7
:103BE40085000008F10001310008F2007208003C71
:103BF400031DFE2D7108FA3C0318572E2608F00009
:103C0400F101F035F10DC530700784000730713DC6
:103C140085000008F10001310008F20072082A0250
:103C2400031D162E7108290203182B2E2608F000F6
:103C3400F101F035F10DC530700784000730713D96
:103C440085000008A90001310008AA0026084001E7
:103C5400ED0051012608F000F101F035F10DC530F9
:103C6400700784000730713D85000008F1000131C0
:103C74000008F20028087202031D422E2708710270
:103C84000318572E2608F000F101F035F10DC53068
:103C9400700784000730713D85000008A7000131DA
:103CA4000008A80026084001EF005101A60AE22DF1
:103CB40028080F3A031D602EFF302706031D642ECB
:103CC400A701A80129084D01C50051012A084D0189
:103CD400C600510127084D01C300510128084D01B8
:103CE400C40051012708B5002808B6008831D9223C
:103CF400983151012908B5002A08B6008031A0275F
:043D040098310800EA
:103D0800FF304F0198009812FF309900FF3097005C
:103D1800FF309A00FF309B0003307C01D0008030D8
:103D2800DB007E01C301CE01D901E4014001171473
:103D380059018E174001971441019E019D010730DA
:103D4800420198000F308E0041018C018D018E01D7
:103D58008F01920193014201920193010F30940067
:103D6800C430910090018F018D018C0102309600C2
:063D78007E01B8150800F1
:1040000050014F08A53A031D0728A5304E06031D91
:10401000102801305101B5008831CC20A0312F2863
:1040200050014F08A13A031D172815304E06031DF5
:10403000202801305101B5008831DF21A0312F281F
:1040400050014F08A03A031D272805304E06031DD6
:104050002F2801305101B50088316022A031500174
:104060005108A53A031D3628A5305006031D3F28E8
:1040700002305101B5008831CC20A0315E285001BA
:104080005108A13A031D462815305006031D4F283C
:1040900002305101B5008831DF21A0315E28500186
:1040A0005108A03A031D562805305006031D5E280E
:1040B00002305101B50088316022A031500153080F
:1040C000A53A031D6528A5305206031D6E2803304E
:1040D0005101B5008831CC20A0318D285001530802
:1040E000A13A031D752815305206031D7E280330A2
:1040F0005101B5008831DF21A0318D2850015308CE
:10410000A03A031D852805305206031D8D28033073
:104110005101B50088316022A03150015508A53AFF
:10412000031D9428A5305406031D9D280430510119
:10413000B5008831CC20A031BC2850015508A13AE7
:10414000031DA42815305406031DAD280430510169
:10415000B5008831DF21A031BC2850015508A03AB4
:10416000031DB42805305406031DBC28043051013A
:10417000B50088316022A03150015708A53A031DCF
:10418000C328A5305606031DCC2805305101B500C3
:104190008831CC20A031EB2850015708A13A031DEB
:1041A000D32815305606031DDC2805305101B50013
:1041B0008831DF21A031EB2850015708A03A031DB8
:1041C000E32805305606031DEB2805305101B500E4
:1041D00088316022A03150015908A53A031DF22808
:1041E000A5305806031DFB2806305101B500883163
:1041F000CC20A0311A2950015908A13A031D0229E7
:1042000015305806031D0B2906305101B5008831C1
:10421000DF21A0311A2950015908A03A031D1229A3
:1042200005305806031D1A2906305101B5008831A2
:104230006022A03150015B08A53A031D2129A53059
:104240005A06031D2A2907305101B5008831CC20B8
:10425000A031492950015B08A13A031D31291530CD
:104260005A06031D3A2907305101B5008831DF2174
:10427000A031492950015B08A03A031D41290530AE
:104280005A06031D492907305101B50088316022C3
:10429000A03150015D08A53A031D5029A5305C06E8
:1042A000031D582908305101B5008831CC20A031B8
:1042B00050015D08A13A031D5F2915305C06031DFE
:1042C000672908305101B5008831DF21A031500144
:1042D0005D08A03A031D6E2905305C06031D762992
:1042E00008305101B50088316022A0315101220807
:1042F0005001CE00CF016F08D000D1015101230839
:104300005001D200D301510124085001D400D5013D
:10431000510120085001D600D70151012108500158
:10432000D800D9016E08DA00DB014F0165085001A1
:06433000DC00DD010800C5
:10487400523084009F3085004130F0000130F10057
:1048840024308600003087008831E327A03151307E
:104894008400A33085000E30F0000130F100A03018
:1048A4008600003087008831E327A031033084007C
:1048B400803085000130F0000130F1006530860061
:1048C400003087008831E327A031DC308400A23037
:1048D40085001430F0000130F100AE308600003065
:1048E40087008831E327A03117308400A430850085
:1048F4000430F0000130F10066308600003087009B
:104904008831E327A03151308400A23085001B3068
:10491400F0000130F100C230860000308700883199
:10492400E327A031B1308400A23085001630F000B6
:104934000130F10020308600013087008831E32700
:10494400A0312D308400A43085000130F000013006
:10495400F1006A308600003087008831E327A031F7
:1049640002308400A33085001130F0000130F100E2
:10497400DD308600003087008831E327A0312C30F9
:104984008400A43085000130F0000130F1006B3068
:104994008600003087008831E327A031CA308400C4
:1049A400A13085002630F0000130F1003630860059
:1049B400013087008831E327A0310D3084009F3017
:1049C40085004530F0000130F100A0308600013050
:1049D40087008831E327A0319B308400A230850012
:1049E4001630F0000130F1002030860002308700DC
:1049F4008831E327A03133308400A33085000F30A1
:104A0400F0000130F1005C3086000130870088310D
:104A1400E327A031F0308400A13085002530F00078
:104A24000130F10036308600023087008831E327F8
:104A3400A031E0308400A33085000930F00001305B
:104A4400F100E5308600013087008831E327A0318A
:104A5400C2308400A33085000B30F0000130F10037
:104A64005B308600023087008831E327A03135307F
:104A74008400A43085000130F0000130F1006C3076
:104A84008600003087008831E327A031423084005B
:104A9400A33085000F30F0000130F100A030860013
:104AA400023087008831E327A03134308400A430F9
:104AB40085000130F0000130F1006D3086000030D7
:104AC40087008831E327A0317A308400A330850041
:104AD4000C30F0000130F100AF3086000230870066
:104AE4008831E327A031D7308400A3308500093012
:104AF400F0000130F1006630860002308700883112
:104B0400E327A031F43084009F3085000C30F0009E
:104B14000130F100BB308600023087008831E32782
:104B2400A03136308400A43085000130F00001301B
:104B3400F1006E308600003087008831E327A03111
:104B440015308400A23085002030F0000130F100DF
:104B5400C7308600023087008831E327A031CD308A
:104B64008400A33085000A30F0000130F1002030C9
:104B74008600033087008831E327A0313830840071
:104B8400A43085000130F0000130F1006F30860060
:104B9400003087008831E327A0311B308400A43023
:104BA40085000430F0000130F1006B3086000130E4
:104BB40087008831E327A03113308400A4308500B6
:104BC4000430F0000130F100E73086000230870045
:104BD4008831E327A03137308400A43085000130C8
:104BE400F0000130F100EE3086000030870088319B
:104BF400E327A0310B308400A43085000830F00096
:104C04000130F1002A308600033087008831E32721
:104C1400A03133308400A43085000130F00001302D
:104C2400F100EF308600003087008831E327A0319F
:104C3400D7308400973085002730F0000130F10030
:104C440032308600033087008831E327A0312F30CB
:104C54008400A43085000130F0000130F1006F3091
:104C64008600013087008831E327A0316C3084004E
:104C7400A23085001830F0000130F100A030860029
:104C8400033087008831E327A03124308400A43026
:104C940085000230F0000130F100EE308600013072
:104CA40087008831E327A03126308400A4308500B2
:104CB4000230F0000130F100EB3086000230870052
:104CC4008831E327A0312E308400A43085000130E0
:104CD400F0000130F1006F30860002308700883127
:104CE400E327A03130308400A43085000130F00087
:104CF4000130F100ED308600023087008831E3276F
:104D0400A031AA308400A33085000C30F0000130BB
:104D1400F10059308600033087008831E327A03141
:104D240092308400A33085000C30F0000130F10093
:104D3400B8308600033087008831E327A031323051
:104D44008400A43085000130F0000130F100EE3021
:104D54008600023087008831E327A0319E3084002A
:104D6400A33085000C30F0000130F100C43086001F
:104D7400033087008831E327A031E9308400A33071
:104D840085000930F0000130F10065308600033001
:104D940087008831E327A0315F308400A330850089
:104DA4000E30F0000130F100D0308600033087006F
:104DB4008831E327A03122308400A43085000230FA
:104DC400F0000130F1006E30860003308700883136
:104DD400E327A0312A308400A43085000230F0009B
:104DE4000130F100DE308600033087008831E3278C
:104DF400A03131308400A43085000130F00001304E
:104E0400F100EF308600023087008831E327A031BB
:104E14006D308400A33085000D30F0000130F100C6
:104E2400E0308600033087008831E327A031353035
:104E34008400A23085001C30F0000130F1002030E5
:104E44008600043087008831E327A0311F308400B6
:104E5400A43085000330F0000130F100ED3086000D
:104E6400033087008831E327A031933084009F30DA
:104E740085003230F0000130F1003C30860004300F
:104E840087008831E327A0319B308400A13085005E
:104E94002F30F0000130F100A0308600043087008C
:104EA4008831E327A03128308400A4308500023003
:104EB400F0000130F1006E30860004308700883144
:104EC400E327A03184308400A23085001730F0003D
:104ED4000130F100CF308600043087008831E327A9
:104EE400A03186308400A33085000C30F0000130FE
:104EF400F10020308600053087008831E327A03197
:104F040003308400A43085000830F0000130F10043
:104F1400E6308600043087008831E327A031C730AB
:104F24008400A23085001530F0000130F1002C30EF
:104F34008600053087008831E327A031FE308400E5
:104F4400973085000230F0000130F100EE30860029
:104F5400043087008831E327A031C53084009F30B6
:104F640085002F30F0000130F1004130860005301B
:104F740087008831E327A031BF3084009E3085004C
:104F84004E30F0000130F100A0308600053087007B
:104F94008831E327A031F2308400A3308500093042
:104FA400F0000130F100203086000630870088319F
:064FB400E327A031080014
:10500000A0313A24A831400117121D128C018D01E4
:105010008E018F019001910159018C018D01983110
:105020008426A8318831BC27A8310930FB001E3006
:10503000FC00E430FD00FD0B1B28FC0B1B28FB0BC8
:105040001B280000FF30A200FF305001EF00FF30AE
:105050005101A300FF30A400FF30A000FF30A100E9
:10506000FF305001EE00FF304F01E50001304D01EF
:10507000BF00B4305101BB000730BC00BD0110308F
:10508000BE000030BF0080313326A8315001ED0151
:105090004D01C001C101BD014C01EE014D01BE0138
:1050A0004F01C4015001EC01FF304001BF00FF304F
:1050B000A600FF30EA00FF30EB00FF30A500FF3014
:1050C000E900FF30E5000130A4000130BE000130EE
:1050D000E8000130E40001304201EF005101A50178
:1050E00010302502031888283D30860006308700DE
:1050F000250886070318870A8101A030860006303C
:105100008700250886070318870A8101A50A7028E9
:1051100088316B20A83152019F01103051018D0060
:10512000323049015E074201EB00003049015F3D2A
:105130004201EC0000304901603D4201ED000030C9
:105140004901613D4201EE00143049015E0745010D
:10515000E700003049015F3D4501E80000304901AA
:10516000603D4501E90000304901613D4501EA002B
:1051700088312323A8318831EC27A8319031582772
:10518000A8314101EE010A3049015E074D01C70017
:10519000003049015F3D4D01C80000304901603DCC
:1051A0004D01C90000304901613D4D01CA00400177
:1051B000141593168031FC27A831141694157E011E
:1051C000CF1532305101B5000330B60080317C2755
:1051D000A8317E01521652168831B227A8312030EC
:1051E0005101BB000830BC00FF30BD004A30BE009A
:1051F0000030BF0080313326A83188313B26A831EA
:1052000020305101B5000730B6002030B70008301B
:10521000B8004A30B9000030BA0080317626A83193
:105220002A30B5000330B60080317C27A831400118
:1052300017121D160930FB001E30FC00E430FD0083
:10524000FD0B2029FC0B2029FB0B2029000051011C
:10525000A5010530250203184E292830BB008031F6
:10526000FB23A83137305101BB008031FB23A8312B
:1052700029305101BB008031FB23A8310930FB00EC
:105280001E30FC00E430FD00FD0B4429FC0B4429DA
:10529000FB0B442900005101A50A292940011712DE
:1052A0001D1601305101A50088310225A831903129
:1052B0002126A8312C3049015E074C01D100013074
:1052C00049015F3D4C01D20000304901603D4C0175
:1052D000D30000304901613D4C01D400903142259A
:1052E000A83188314D27A8314B012008013A031D10
:1052F000832990319425A83188318126A831023044
:105300004B01A000052B2008023A031D052B490183
:105310006108003C031D96296008003C031D962986
:105320005F08003C031D96295E080A3C0318052B04
:105330005A08013A031DDB295101A501103025024D
:105340000318D729B4308400073085002508840766
:105350000318850A00080319B729DF3086000630D4
:105360008700250886070318870A02308100250870
:10537000013EF000F1010030F13DB43070078400CF
:105380000730713D850000080319D4292508013E26
:10539000F000F1010030F13DDF307007860006308B
:1053A000713D8700013081000230A5079E299831A8
:1053B000A624A831052B490161084D014A02031DAD
:1053C000F129490160084D014902031DF1294901F4
:1053D0005F084D014802031DF12949015E084D0196
:1053E00047020318022B41016E0803197E2A4A0165
:1053F0006F08013A031D692AEF01DF305101B50042
:105400000630B600A030B7000730B8001030B90041
:105410000030BA0080317626A831DF3086000630B1
:10542000870040016D0886070318870A8101DF3075
:105430008600063087006F0886070318870A8101F7
:105440005101A501103025020318692A40013E08C8
:10545000003A031D462A6F08510125060319462A02
:105460003D30840006308500250884070318850A2E
:105470000008013A031D462ADF3086000630870007
:10548000250886070318870A013081004001640857
:10549000003A031D662A6D08510125060319662A84
:1054A000A030840006308500250884070318850A8B
:1054B0000008013A031D662ADF30860006308700A7
:1054C000250886070318870A023081005101A50AC2
:1054D000222A323049015E074D01C70000304901E0
:1054E0005F3D4D01C80000304901603D4D01C900DC
:1054F00000304901613D4D01CA00FC2A0A304901D2
:105500005E074D01C700003049015F3D4D01C800F5
:1055100000304901603D4D01C90000304901613D45
:105520004D01CA00DF305101B5000630B600A03091
:10553000B7000730B8001030B9000030BA00803131
:105540007626A8314A016F08013A031DFC2AEF01B3
:105550005101A501103025020318E72A40013E0839
:10556000003A031DC92A3D308400063085005101F0
:10557000250884070318850A0008013A031DC92A73
:10558000DF30860006308700250886070318870A63
:10559000810140016408003A031DE42AA030840020
:1055A000063085005101250884070318850A000884
:1055B000013A031DE42ADF30860006308700250803
:1055C00086070318870A81015101A50AAA2ADF303C
:1055D00086000630870040016D0886070318870A99
:1055E00002308100DF308600063087006F088607B2
:1055F0000318870A0130810041016E080130031D44
:105600000030EE009831A624A83190317427A831DB
:105610004001141694157E01CF154901610845011A
:105620006A02031D232B4901600845016902031D1D
:10563000232B49015F0845016802031D232B490103
:105640005E08450167020318D52C88310225A83170
:1056500090312126A8314D0141080319442B5830BF
:1056600049015E074D01CB00023049015F3D4D010C
:10567000CC0000304901603D4D01CD0000304901B2
:10568000613D4D01CE00C10150014B08FF3A031DA1
:105690004B2BFF304A0603196A2B490161084D0163
:1056A0004E02031D632B490160084D014D02031D8D
:1056B000632B49015F084D014C02031D632B490117
:1056C0005E084D014B0203186A2BFF305001CA00DF
:1056D000FF30CB004D013D080319832B58304901A1
:1056E0005E074D01CF00023049015F3D4D01D00002
:1056F00000304901603D4D01D10000304901613D5C
:105700004D01D200BD0150014D08FF3A031D8A2B07
:10571000FF304C060319A92B490161084D015202C3
:10572000031DA22B490160084D015102031DA22B4C
:1057300049015F084D015002031DA22B49015E087B
:105740004D014F020318A92BFF305001CC00FF3050
:10575000CD0050014B08FF3A031DB02BFF304A0625
:10576000031DBB2B4A016D084301EE004A016E0880
:105770004301EF00F32B4A016D084301EE004A019B
:105780006E084301EF0050014A084A01ED00500144
:105790004B084A01EE002C3050014A024601EE004F
:1057A000013050014B3B4601EF0023305101B50061
:1057B000A330B60088315724A8314A016D08510141
:1057C000B5004A016E085101B6008031F027A831BA
:1057D00046016E085101B50046016F085101B6003F
:1057E0008031F027A83150014D08FF3A031DFA2BF4
:1057F000FF304C06031D052C4A016B084501EB00E8
:105800004A016C084501EC001F2C4A016B08450158
:10581000EB004A016C084501EC0050014C084A01BC
:10582000EB0050014D084A01EC002C3050014C07B0
:105830004701DE00013050014D3D4701DF004301CB
:105840006E085001C60043016F085001C7004501B2
:105850006B085001C80045016C085001C9000030B8
:105860006106031D352C01306006031D5C2C1330CE
:105870005101B500A330B60088315724A831B501D5
:1058800088313020A8315101B50188310020A8317C
:10589000B50188318B20A83140011D125230FB0028
:1058A0002B30FC000030FD00FD0B542CFC0B542C65
:1058B000FB0B542C00001716003050015F06031D2F
:1058C000632C01305E06031D762C88316B20A831D5
:1058D0005001DE01DF01F0305101B500A230B60009
:1058E00088315724A8318031A126A831A031002069
:1058F000A83145016E08003A031D842CFF30500189
:10590000C4057F30C5058B2C45016E08013A031D87
:105910008B2C5001C51740016E08003A031D932CD3
:10592000500145139A2C40016E08013A031D9A2C30
:105930005001451740016C08003A031DA22C50018C
:10594000C512A92C40016C08013A031DA92C500175
:10595000C5164A016C086E02031DB02C6B086D025F
:10596000031CB62C01304D01BE00B82C4D01BE0108
:10597000053049015E074501E700003049015F3D00
:105980004501E80000304901603D4501E900003073
:105990004901613D4501EA009831DA25A83190318D
:1059A000B021A83190310020A83144016F08031DB7
:1059B000ED2C49016108003C031DE82C6008003C07
:1059C000031DE82C5F08003C031DE82C5E08643CC6
:1059D0000318ED2C01304401EF0040016608013A44
:1059E0000319072D49015A08013A0319072D5001DF
:1059F0006D08013A0319072D4C016E08013A03198D
:105A0000072D4D013E08013A0319072D7A2D490152
:105A100061085802031D162D60085702031D162D3C
:105A20005F085602031D162D5E08550203187A2DD5
:105A3000E6305101B5000430B60080317C27A83132
:105A40004D013E085101BB008031A825A8316608F0
:105A50005101BB008031A825A83141016F085101D7
:105A6000BB008031A825A83149015A085101BB006B
:105A70008031A825A83150016D085101BB0080314B
:105A8000A825A8314C016E085101BB008031A82522
:105A9000A8315101B50188313020A8315101B5013B
:105AA00088310020A831B50188318B20A8314130E0
:105AB000B5000530B60080317C27A8310530FB00E9
:105AC0000F30FC00F130FD00FD0B642DFC0B642D4C
:105AD000FB0B642D40011D125230FB002B30FC00EB
:105AE0000030FD00FD0B722DFC0B722DFB0B722D97
:105AF000000017164901610842016E02031D902D36
:105B00004901600842016D02031D902D49015F08A3
:105B100042016C02031D902D49015E0842016B0297
:105B20000318282F4F013408003A0319A42D350813
:105B3000003A0319A42D3608003A0319A42D37089A
:105B4000003A0319A42DCB2D01304C01EE004C304E
:105B50005101B5000530B60080317C27A8314F01D6
:105B600034085101BB008031A825A8314F01350808
:105B70005101BB008031A825A8314F0136085101E1
:105B8000BB008031A825A8314F0137085101BB0067
:105B90008031A825A8314D014008013A031DDB2DB5
:105BA000B6305101B5000530B60080317C27A831F0
:105BB00001304C01EE00E4305101B5000530B60073
:105BC00080317C27A8314A016D085101B5004A0196
:105BD0006E085101B60088317C23A831CF305101C5
:105BE000B5000530B60080317C27A8314A016B082A
:105BF0005101B5004A016C085101B60088317C237F
:105C0000A831D8305101B5000530B60080317C276D
:105C1000A8314F016B085101B5004F016C085101CB
:105C2000B60088317C23A831AA305101B500053077
:105C3000B60080317C27A8314F016D085101B500B5
:105C40004F016E085101B60088317C23A831A13084
:105C50005101B5000530B60080317C27A831903164
:105C60002126A83170085101BB008031A825A83138
:105C700020305101B5000630B60080317C27A831B4
:105C800088310225A83170085101BB008031A82558
:105C9000A83120305101B5000530B60080317C2795
:105CA000A83146016E085101B50046016F08510147
:105CB000B60088317C23A83154305101B50004303E
:105CC000B60080317C27A83147015E085101B5003C
:105CD00047015F085101B60088317C23A8314C3060
:105CE0005101B5000430B60080317C27A831500145
:105CF0006C085101BB008031A825A8313D3051010D
:105D0000B5000430B60080317C27A831A5011030E1
:105D1000250203189B2EB430840007308500250827
:105D200084070318850A0008BB008031A825A83124
:105D30005101A50A872EA501103025020318CA2E8D
:105D40004430B5000430B60080317C27A8312508E6
:105D5000BB008031A825A83160305101B500043066
:105D6000B60080317C27A8312508F000F101F0351C
:105D7000F10DC530700784000730713D85000008C3
:105D8000B50001310008B60088317C23A8315101EB
:105D9000A50A9C2EB730B5000430B60080317C27B0
:105DA000A83150016B085101BB008031A825A831F2
:105DB000C4305101B5000430B60080317C27A831D1
:105DC0004F016A085101BB008031A825A831AB30D2
:105DD0005101B5000430B60080317C27A8314F0155
:105DE0006F085101BB008031A825A83162305101F4
:105DF000B5000430B60080317C27A8314B016F0814
:105E00005101BB008031A825A831A0305101B50057
:105E10000430B60080317C27A8314B016E08510157
:105E2000BB008031A825A831323049015E0742010C
:105E3000EB00003049015F3D4201EC0000304901B8
:105E4000603D4201ED0000304901613D4201EE003C
:0A5E500098310020A8316E292C2F94
:02000600FF34C5
:102FAE000D340A345334543441345234543454347A
:102FBE0049343134323433343434353436343734AE
:062FCE00383439340034F0
:102FD4000D340A3453344534543455344A34453466
:102FE4004D344534203455344D3441345834483408
:082FF40041345634213400344D
:022FFC0001349E
:022FFE0000349D
:023D7E0000340F
:103D8000203455344D3441345834493444343A3471
:023D90000034FD
:103D92002034203420345234453441344C344D34B0
:083DA200413458343A34003476
:103DAA000D340A344D34493453345334453444348D
:103DBA0042345534543454344F344E3443344534F5
:103DCA004C344C3446344C34413447343234213444
:023DDA000034B3
:103DDC0020342034203456344D34413458343A3461
:023DEC000034A1
:103DEE002034203420345234453441344C344D3454
:083DFE0049344E343A3400341C
:103E06000D340A340D340A3456344D3449344E34A4
:043E16003A34003406
:103E1A000D340A3455344D3449344E342034433445
:103E2A004F344E34443420343434573441344934D2
:0E3E3A005434543449344D344534213400346A
:103E48000D340A344D3449345334533445344434EE
:103E58002034433445344C344C34203454344534C1
:0E3E6800533454345234453453343A34003415
:103E76000D340A3455344D3449344E3434344534D3
:103E860056345234453454342E3454344534533431
:0E3E9600543455344D34413458343A340034E9
:023EA4000134E7
:023EA600FF34E7
:023EA800FF34E5
:103EAA000D340A3455344D344134583434342034C2
:103EBA00443445344C34413459344534563420342E
:0E3ECA005734483459345334543421340034BE
:023ED8000134B3
:023EDA00FF34B3
:103EDC000D340A3455344D3449344E343434203492
:103EEC00443445344C3441345934453456342034FC
:0C3EFC00573448345934533454340034E3
:103F08000D340A3455344D3449344E344434453430
:0C3F18004C3441345934453456340034E4
:023F2400013466
:023F2600003465
:0E3F2800203420344234433441343A340034DF
:103F3600203420345634433448344E343A34003432
:103F4600203420344E34433445344C343A3400342F
:103F560020342034203455344834413456344D34DA
:083F6600413458343A340034B0
:043F6E003D340034AA
:103F72002034433455344E344434453452344D3471
:083F820049344E343A34003496
:103F8A000D340A34553448344134563446344134B5
:063F9A0049344C340034F0
:103FA0000D340A344D344934533453344534443495
:103FB00042345534543454344F344E3443344534FD
:103FC0004C344C3446344C3441344734313421344D
:043FD0003A3400344B
:023FD4000034B7
:083FD600003400340034003413
:043FDE000034003477
:043FE2000034003473
:023FE6000034A5
:103FE8000D340A3455344D3449344E344F344B343F
:083FF800533445345434003405
:1043360020344334413442344F3456344D344134BE
:0643460058343A34003443
:10434C002034433455344D3449344E34573441348D
:08435C00493454343A340034B2
:104364000D340A34433455344D34413458345734BD
:0A4374004134493454343A34003423
:10437E002034433455344D34413458344E344F3454
:06438E0057343A340034FC
:104394000D340A3455344D344134583434345234A1
:0E43A40045345434553452344E3421340034F0
:1043B2000D340A3455344D344134583420344334A6
:1043C2004F344E3444342034343457344134493435
:0E43D2005434543449344D34453421340034CD
:1043E0000D340A344D344934533453344534443451
:1043F0002034433445344C344C3420345434453424
:08440000533454343A34003403
:104408004734423455344D34413458342D345534BE
:104418004D344134583448345934533454343A348C
:0244280000345E
:10442A000D340A3455344D3449344E343434453419
